:1000000014C02EC02DC02CC02BC02AC029C028C0AF
:1000100027C01BC125C024C023C022C021C020C0CE
:100020001FC01EC01DC00A7DFF0011241FBECFE5EA
:10003000D4E0DEBFCDBF10E0A0E6B0E0E6E7F5E03B
:1000400002C005900D92A636B107D9F720E0A6E6CA
:10005000B0E001C01D92A238B207E1F783D189C296
:10006000CFCF20916600283070F490916800E92F7E
:10007000F0E0E759FF4F80832F5F209366009F5F7A
:1000800097709093680008950F931F93CF93DF9319
:10009000CFEFC60FD0E0FE01EF58FF4F1081FE01F9
:1000A000EA58FF4F9081882389F0913A28F59F5FA5
:1000B000909375009B3008F01160913A98F011FD13
:1000C00011C01B7F126041FD08C00CC010FF1CC096
:1000D00011FD1AC042FD13C017C002E0862FC1DF18
:1000E000802FBFDFFE01EA58FF4F809175008083AB
:1000F000CF58DF4F18830CC090937500F3CF109248
:1001000075001C7F03E0EACF109275001C7FEACFD8
:10011000DF91CF911F910F910895209166002223C6
:1001200079F090916700E92FF0E0E759FF4F808167
:100130002150209366009F5F977090936700089509
:1001400080E00895A6E7B0E01C92E1E7F0E01082BD
:1001500011961C921197118212961C92129712827C
:1001600013961C921382E9E6F0E081E790E0119289
:10017000E817F907E1F710926800109267001092F3
:100180006600A098A89AA198A99A8B98939A8C989F
:10019000949A0895CF9383B3C1E08C2744E061E043
:1001A000817072DF83B38695817044E062E08C27B2
:1001B0006BDF80B383FB882780F944E063E08C2702
:1001C00063DF80B38295817044E064E08C275CDF5C
:1001D000CF910895A09885B3836085BB8B9882B337
:1001E000886182BB87B38E6087BBC19884B38C6300
:1001F00084BBAA9883B78B7F83BF83B7836083BF99
:1002000089B7816089BF8FB581608FBD8FB58D7FC4
:100210008FBD8EB588608EBD8EB58F7E8EBD8EB53E
:1002200082608EBD8EB58E7F8EBD8FB5806A8FBD8C
:100230008FB58FBD85B5896685BD85B58F7785BD41
:1002400085B5826085BD789408951F920F920FB690
:100250000F9211248F939F938091810081FF11C091
:100260008091640090916500009731F00197909320
:1002700065008093640005C0809181008D7F80932C
:1002800081008091810082FF17C08091620090916F
:100290006300009731F001979093630080936200B0
:1002A0000BC0809181008B7F8093810086E990E074
:1002B00090936300809362008091810083FF11C05E
:1002C0008091600090916100009731F001979093C8
:1002D00061008093600005C080918100877F8093DA
:1002E00081009F918F910F900FBE0F901F901895D6
:1002F000F89488E79EE19093650080936400789479
:100300000895F89410926300109262007894089512
:100310009091810092FD0AC090917A0090959093FF
:100320007A009091810094609093810090917A007E
:1003300091110CC0823031F0833031F0813089F47A
:10034000AA980895AB980895AD980895823031F039
:10035000833031F0813029F4AA9A0895AB9A089538
:10036000AD9A089583E090E0EFD08093800082E022
:1003700090E0EAD080937F0081E090E0E5D0809328
:100380007E0080E090E0E0D080937D0023DFDADE25
:10039000ADD0809181008460809381008091810044
:1003A000816080938100C1E0A8959091810093FDC8
:1003B00073C0F0DEB2DE80937C0090918100986083
:1003C00090938100882309F467C0A7DE80937B00A7
:1003D00090917C00923071F118F4913041F05CC042
:1003E000933009F44BC0943009F450C055C08330A9
:1003F00009F052C09091810090FF15C0909181004A
:100400009E7F9093810060E08C2F8CD060E082E032
:1004100089D060E083E086D0F89410926500109255
:100420006400789439C0909181009160909381002C
:100430005DD032C0833081F59091810090FF2CC057
:100440008091810081FD06C080918100826080934F
:1004500081000AC090918000933020F49F5F9093B8
:10046000800002C0C0938000F8946091800083E017
:1004700090E072D078943CDF44DF0EC0833061F4AA
:100480009091810091FF08C033DF06C0833021F4D2
:100490009091810091FD2CDF9091810090FF21C00F
:1004A0009091810091FF14C0AC989091800092309F
:1004B00039F0933041F0913041F4AD9AAB9A05C0D8
:1004C000AA9AAD9A02C0AA9AAB9A8091800020DFC6
:1004D0009091810091FD68CFAA9AAB9AAD9AAC98A1
:1004E00063CFAA98AB98AD98AC9A5ECFF894E091A0
:1004F0007F00F0E0EA5DFF4FE491F0E0FBBDEABD74
:10050000E0917E00F0E0EA5DFF4FE491F0E0F9BD9C
:10051000E8BDE0917D00F0E0EA5DFF4FE491E3BDCE
:1005200078940895F894823041F0833051F081300E
:1005300049F470E07BBD6ABD05C070E079BD68BD5F
:1005400001C063BD78940895E199FECF9FBB8EBB37
:10055000E09A99278DB30895262FE199FECF9FBB8E
:100560008EBB2DBB0FB6F894E29AE19A0FBE0196AE
:060570000895F894FFCF8E
:0605760008009600781E4B
:00000001FF
