S00A00004C542E737265637A
S113000016C030C02FC02EC02DC02CC02BC02AC09B
S113001029C03CC127C026C025C024C023C022C09B
S113002021C020C01FC00308101C315594FF1124A7
S11300301FBECFE5D4E0DEBFCDBF10E0A0E6B0E048
S1130040E4ECF7E002C005900D92A836B107D9F7A9
S113005020E0A8E6B0E001C01D92A338B207E1F7A2
S1130060ECD1AEC3CDCF20916800283070F49091CC
S11300706A00E92FF0E0E559FF4F80832F5F20935A
S113008068009F5F977090936A0008950F931F9381
S1130090CF93DF93CFEFC60FD0E0FE01ED58FF4FB3
S11300A01081FE01E858FF4F9081882389F0913A2E
S11300B080F59F5F909377009B3008F01160913A30
S11300C0F0F011FD1CC01B7F126041FD13C017C06E
S11300D010FF30C011FD2EC042FD23C02BC003E031
S11300E001C000E043FD2BC0109277001C7F01117A
S11300F002C005C002E0862FB6DF802FB4DFFE0108
S1130100E858FF4F809177008083CD58DF4F1883E4
S11301101BC090937700F3CF109277001C7F03E00D
S1130120EACF812F83708330D1F2F6CF109277001B
S11301301C7FE5CF812F8370833099F2F7CF109223
S113014077001C7F04E0D7CFDF91CF911F910F91EF
S1130150089520916800222379F090916900E92F95
S1130160F0E0E559FF4F80812150209368009F5FA4
S1130170977090936900089580E00895A8E7B0E02F
S11301801C92E3E7F0E0108211961C921197118201
S113019012961C921297128213961C921382EBE60B
S11301A0F0E083E790E01192E817F907E1F7109285
S11301B06A001092690010926800A098A89AA19809
S11301C0A99A8B98939A8C98949A0895CF9383B311
S11301D0C1E08C2744E061E0817058DF83B38695E9
S11301E0817044E062E08C2751DF80B383FB882771
S11301F080F946E063E08C2749DF80B38295817003
S113020046E064E08C2742DFCF910895A09885B33F
S1130210836085BB8B9882B3886182BB87B38E6011
S113022087BBC19884B38C6384BBAA9883B78B7F44
S113023083BF83B7836083BF89B7816089BF8FB56C
S113024081608FBD8FB58D7F8FBD8EB588608EBD6B
S11302508EB58F7E8EBD8EB582608EBD8EB58E7F3F
S11302608EBD8FB5806A8FBD8FB58F7E8FBD85B5EE
S11302708A6685BD85B58F7785BD85B5826085BD68
S11302807894089581B58E6081BD08951F920F9270
S11302900FB60F9211248F939F938091820081FF58
S11302A015C08091640090916500892B51F0809174
S11302B064009091650001979093650080936400B9
S11302C005C0809182008D7F80938200809182009E
S11302D082FF1BC08091620090916300892B51F0D2
S11302E080916200909163000197909363008093E2
S11302F062000BC0809182008B7F8093820086E92C
S113030090E090936300809362008091820083FF69
S113031015C08091600090916100892B51F080910B
S11303206000909161000197909361008093600058
S113033005C080918200877F809382009F918F9176
S11303400F900FBE0F901F901895F89488E79EE1C8
S1130350909365008093640078940895F8941092C3
S1130360630010926200789408959091820092FD47
S11303700AC090917C00909590937C0090918200AB
S113038094609093820090917C0091110CC0823013
S113039031F0833031F0813089F4AA980895AB9814
S11303A00895AD980895823031F0833031F0813072
S11303B029F4AA9A0895AB9A0895AD9A0895909154
S11303C0820090FF1DC09091820091FF10C0AC98F4
S11303D0823039F0833041F0813041F4AD9AAB9AE8
S11303E005C0AA9AAD9A02C0AA9AAB9ABEDF8091C0
S11303F0820081FD09C0AA9AAB9AAD9AAC9808957F
S1130400AA98AB98AD98AC9A089585B58F7D85BDB3
S11304108FB58F778FBD8FB58F7D8FBDC1980895B0
S113042085B5806285BD85B58F7E85BD8FB5806AB3
S11304308FBD8FB58F7E8FBD089583E090E0ABD1E3
S1130440843040F081E08093660061E083E090E0D6
S1130450AAD102C08093660082E090E09CD18830EB
S113046038F01092810060E082E090E09CD102C0FC
S11304708093810081E090E08ED1883038F0109232
S1130480800060E081E090E08ED102C08093800023
S113049080E090E080D1883038F010927F0060E0F6
S11304A080E090E080D102C080937F00AED0AEDEC9
S11304B065DEE8DE84E090E06ED1823050F0809119
S11304C0820081608093820061E084E090E06BD1DF
S11304D00EC0813031F4809182008160809382006B
S11304E006C0809182008E7F809382008EDF80918F
S11304F08200846080938200C1E0A895809182008C
S113050083FD7FC063DE25DE80937E0090918200B0
S1130510986090938200882309F473C01ADE809354
S11305207D0090917E00923091F118F4913041F069
S113053068C0933009F450C0943009F458C061C0C5
S1130540833009F05EC08091820080FF13C08091E7
S113055082008E7F80938200F89460E084E090E0D3
S113056022D1789452DFF8941092650010926400BE
S1130570789447C080918200816080938200F894CF
S11305806C2F84E090E00FD178944ADF3AC0833036
S1130590C1F58091820080FF34C08091820081FD8A
S11305A006C08091820082608093820012C083E042
S11305B090E0F1D0833020F48F5F8093660002C016
S11305C0C0936600F8946091660083E090E0EBD0FD
S11305D07894BBDEC3DE15C0833099F48091820029
S11305E081FF0FC0809166002CD0AFDE0AC083303B
S11305F041F48091820081FF04C08091660076D02E
S1130600A4DE80916600DBDE78CFF894E09181006F
S1130610F0E0EA5DFF4FE491F0E0FBBDEABDE0915C
S11306208000F0E0EA5DFF4FE491F0E0F9BDE8BD41
S1130630E0917F00F0E0EA5DFF4FE491E3BD789440
S113064008958130D9F482E090E0A5D0811103C0EF
S1130650109281000895815080938100E82FF0E08A
S1130660EA5DFF4FE491F894F0E0FBBDEABD7894B5
S11306706091810082E090E096D008958230D9F4B0
S113068081E090E088D0811103C010928000089529
S1130690815080938000E82FF0E0EA5DFF4F849161
S11306A0F89490E099BD88BD78946091800081E0D1
S11306B090E079D008958330C1F480E090E06BD06D
S11306C0811103C010927F000895815080937F00B0
S11306D0E82FF0E0EA5DFF4FE491F894E3BD7894ED
S11306E060917F0080E090E05ED008958130D9F47D
S11306F082E090E050D0873018F080938100089514
S11307008F5F80938100E82FF0E0EA5DFF4FE49172
S1130710F894F0E0FBBDEABD78946091810082E03A
S113072090E041D008958230D9F481E090E033D054
S1130730873018F08093800008958F5F8093800045
S1130740E82FF0E0EA5DFF4F8491F89490E099BDC2
S113075088BD78946091800081E090E024D0089571
S11307608330C1F480E090E016D0873018F0809395
S11307707F0008958F5F80937F00E82FF0E0EA5DAB
S1130780FF4FE491F894E3BD789460917F0080E09A
S113079090E009D00895E199FECF9FBB8EBBE09A0B
S11307A099278DB30895262FE199FECF9FBB8EBB69
S11307B02DBB0FB6F894E29AE19A0FBE0196089504
S10707C0F894FFCFD7
S10B07C408009600781E0100F4
S9030000FC
