S00A00004C542E737265637A
S113000017C031C030C02FC02EC02DC02CC02BC093
S11300102AC08FC128C027C026C025C024C023C041
S113002022C021C020C0000308101C315594FF00D9
S113003011241FBECFE5D4E0DEBFCDBF10E0A0E6A3
S1130040B0E0E4E1F9E002C005900D92AA36B107F0
S1130050D9F720E0AAE6B0E001C01D92A238B207A9
S1130060E1F720D255C4CCCF20916A00283070F437
S113007090916C00E92FF0E0E359FF4F80832F5FEC
S113008020936A009F5F977090936C0008950F937C
S11300901F93CF93DF93CFEFC60FD0E0FE01EB5851
S11300A0FF4F1081FE01E658FF4F9081882389F0AD
S11300B0913A80F59F5F909379009B3008F011602E
S11300C0913AF0F011FD1CC01B7F126041FD13C07A
S11300D017C010FF30C011FD2EC042FD23C02BC03D
S11300E003E001C000E043FD2BC0109279001C7FA7
S11300F0011102C005C002E0862FB6DF802FB4DFF5
S1130100FE01E658FF4F809179008083CB58DF4F82
S113011018831BC090937900F3CF109279001C7F51
S113012003E0EACF812F83708330D1F2F6CF1092AF
S113013079001C7FE5CF812F8370833099F2F7CF4C
S1130140109279001C7F04E0D7CFDF91CF911F91EB
S11301500F91089520916A00222379F090916B0009
S1130160E92FF0E0E359FF4F8081215020936A008A
S11301709F5F977090936B00089580E00895AAE7BD
S1130180B0E01C92E5E7F0E0108211961C92119702
S1130190118212961C921297128213961C92138249
S11301A0EDE6F0E085E790E01192E817F907E1F752
S11301B010926C0010926B0010926A00A098A89A9A
S11301C0A198A99A8B98939A8C98949A0895CF930E
S11301D083B3C1E08C2744E061E0817058DF83B3CE
S11301E08695817044E062E08C2751DF80B383FB05
S11301F0882780F946E063E08C2749DF80B3829545
S1130200817046E064E08C2742DFCF910895A09886
S113021085B3836085BB8B9882B3886182BB87B3C7
S11302208E6087BBC19884B38C6384BBAA9883B760
S11302308B7F83BF83B7836083BF89B7816089BFA6
S11302408FB581608FBD8FB58D7F8FBD8EB5886072
S11302508EBD8EB58F7E8EBD8EB582608EBD8EB501
S11302608E7F8EBD8FB5806A8FBD8FB58F7E8FBD1B
S113027085B58A6685BD85B58F7785BD85B5826070
S113028085BD7894089581B58E6081BD08958230CE
S113029071F018F4813031F00895833069F08430BE
S11302A081F008958FB58F778FBDC29808958FB56B
S11302B08F7D8FBDC298089585B58F7D85BDC39808
S11302C0089585B58F7D85BD8FB58F778FBD8FB52B
S11302D08F7D8FBDC1980895823081F018F48130EC
S11302E031F00895833089F08430B1F008958FB5EA
S11302F080688FBD8FB58F7B8FBD08958FB5806269
S11303008FBD8FB58F7E8FBD089585B5806285BD05
S113031085B58F7E85BD089585B5806285BD85B51B
S11303208F7E85BD8FB5806A8FBD8FB58F7E8FBD63
S113033008951F920F920FB60F9211248F939F93DB
S11303408091810081FF15C08091630090916400C9
S1130350892B51F0809163009091640001979093F0
S113036064008093630005C0809181008D7F809339
S113037081008091810082FF1BC080916100909177
S11303806200892B51F08091610090916200019785
S113039090936200809361000BC0809181008B7FF9
S11303A08093810086E990E09093620080936100DD
S11303B08091810083FF0FC080916000882331F019
S11303C08091600081508093600005C0809181001D
S11303D0877F809381009F918F910F900FBE0F9024
S11303E01F901895F89488E79EE190936400809399
S11303F0630078940895F89410926200109261005A
S1130400789408959091810092FD0AC090917E00A5
S1130410909590937E0090918100946090938100D8
S113042090917E0091110CC0823031F0833031F014
S1130430813089F4AA980895AB980895AD980895E9
S1130440823031F0833031F0813029F4AA9A089552
S1130450AB9A0895AD9A08959091810090FF1DC0C4
S11304609091810091FF10C0AC98823039F08330B4
S113047041F0813041F4AD9AAB9A05C0AA9AAD9A85
S113048002C0AA9AAB9ABEDF8091810081FD09C0A7
S1130490AA9AAB9AAD9AAC980895AA98AB98AD98DD
S11304A0AC9A0895B4DE2FEF82E597E021508040A6
S11304B09040E1F700C0000083E090E014D2843063
S11304C040F081E08093680061E083E090E013D223
S11304D002C08093680082E090E005D2893040F049
S11304E081E08093670061E082E090E004D202C082
S11304F08093670081E090E0F6D1893040F081E09C
S11305008093660061E081E090E0F5D102C08093C1
S1130510660080E090E0E7D1893040F081E080938C
S1130520650061E080E090E0E6D102C08093650060
S1130530C4D025DEA8DE84E090E0D5D1823050F02E
S11305408091810081608093810061E084E090E08B
S1130550D2D10FC0813031F48091810081608093C9
S1130560810007C0809181008E7F8093810084E0A8
S11305708EDE80918100846080938100C1E0A89523
S11305809091810093FD95C022DEE4DD809380008C
S113059090918100986090938100882309F489C028
S11305A0D9DD80937F0090918000923009F445C09A
S11305B018F4913041F07DC0933009F465C0943053
S11305C009F46DC076C0833009F073C09091810046
S11305D090FF14C0909181009E7F90938100F894C5
S11305E060E084E090E087D1789484E050DEF89471
S11305F0109264001092630078945BC09091810023
S1130600916090938100F8946C2F84E090E073D112
S1130610789480916700882311F08C2F5DDE80919F
S11306206600882311F082E057DE809165008823FC
S113063009F43FC083E050DE3CC08330D1F5909193
S1130640810090FF36C08091810081FD06C08091B9
S1130650810082608093810014C0F89483E090E06C
S113066042D17894833020F48F5F8093680002C075
S1130670C0936800F8946091680083E090E03BD1F7
S11306807894B0DEB8DE15C0833099F4909181007F
S113069091FF0FC08091680045D0A4DE0AC083306A
S11306A041F49091810091FF04C080916800ACD026
S11306B099DE80916800D0DE62CF8091670081115D
S11306C003C081E0E4DD0BC081E006DEE091670059
S11306D0F0E0EA5DFF4FE491F0E0FBBDEABD8091FC
S11306E06600811103C082E0D2DD0BC082E0F4DD3C
S11306F0E0916600F0E0EA5DFF4FE491F0E0F9BDBF
S1130700E8BD80916500811103C083E0C0DD0895D8
S113071083E0E2DDE0916500F0E0EA5DFF4FE49103
S1130720E3BD0895823051F1833009F44BC0813028
S113073009F069C0F89482E090E0D5D078948111F2
S113074003C010926700089581508093670081115F
S113075003C081E09CDD0AC0E82FF0E0EA5DFF4FB2
S1130760E491F894F0E0FBBDEABD7894F8946091CC
S1130770670082E090E0BFD078940895F89481E017
S113078090E0B1D07894811103C01092660008956E
S1130790815080936600811103C082E078DD0AC035
S11307A0E82FF0E0EA5DFF4FE491F894F0E0F9BD42
S11307B0E8BD7894F8946091660081E090E09BD065
S11307C078940895F89480E090E08DD07894811125
S11307D003C01092650008958150809365008111D3
S11307E003C083E054DD08C0E82FF0E0EA5DFF4F6A
S11307F0E491F894E3BD7894F8946091650080E006
S113080090E079D078940895813021F5F89482E0CD
S113081090E069D0809367007894883008F062C0D3
S1130820811102C081E058DDE0916700EF5FE09341
S11308306700F0E0EA5DFF4FE491F894F0E0FBBD5F
S1130840EABD7894F8946091670082E090E053D018
S113085078940895823021F5F89481E090E043D0B3
S1130860809366007894883008F03CC0811102C0FF
S113087082E032DDE0916600EF5FE0936600F0E035
S1130880EA5DFF4FE491F894F0E0F9BDE8BD789497
S1130890F8946091660081E090E02DD078940895FA
S11308A0833001F5F89480E090E01DD080936500DA
S11308B078948830B8F4811102C083E00DDDE091B2
S11308C06500EF5FE0936500F0E0EA5DFF4FE491BF
S11308D0F894E3BD7894F8946091650080E090E02A
S11308E00AD078940895E199FECF9FBB8EBBE09A1D
S11308F099278DB30895262FE199FECF9FBB8EBB18
S11309002DBB0FB6F894E29AE19A0FBE01960895B2
S1070910F894FFCF85
S10D0914089600781E01010101009D
S9030000FC
